:1000000000000820513300004D330000B5110000FE
:10001000CD110000E5110000FD11000000000000FE
:100020000000000000000000000000004D33000050
:100030004D330000000000004D330000C9270000D0
:100040007D0E00004D330000C51000004D33000050
:100050004D3300004D3300004D3300004D330000A0
:100060004D3300004D3300004D3300004D33000090
:100070004D3300004D3300004D3300004D33000080
:100080004D3300004D3300004D3300004D33000070
:100090004D3300004D3300004D3300004D33000060
:1000A0004D3300004D3300004D3300004D33000050
:1000B0004D3300004D3300004D3300004D33000040
:1000C0004D3300004D3300004D3300004D33000030
:1000D0004D3300004D3300004D3300004D33000020
:1000E0004D3300004D3300004D3300004D33000010
:1000F0004D3300004D3300004D3300004D33000000
:100100004D3300004D3300004D3300004D330000EF
:100110004D3300004D3300004D3300004D330000DF
:100120004D3300004D3300004D3300004D330000CF
:100130004D3300004D3300004D3300004D330000BF
:100140004D3300004D3300004D3300004D330000AF
:1001500081F0004102E000BF83F0004330B54FEA78
:1001600041044FEA430594EA050F08BF90EA020FE5
:100170001FBF54EA000C55EA020C7FEA645C7FEA78
:10018000655C00F0E2804FEA5454D4EB5555B8BF9B
:100190006D420CDD2C4480EA020281EA030382EA0C
:1001A000000083EA010180EA020281EA0303362D9E
:1001B00088BF30BD11F0004F4FEA01314FF4801C71
:1001C0004CEA113102D0404261EB410113F0004F83
:1001D0004FEA03334CEA133302D0524263EB43033A
:1001E00094EA050F00F0A780A4F10104D5F1200ED8
:1001F0000DDB02FA0EFC22FA05F2801841F1000133
:1002000003FA0EF2801843FA05F359410EE0A5F106
:1002100020050EF1200E012A03FA0EFC28BF4CF037
:10022000020C43FA05F3C01851EBE37101F00045ED
:1002300007D54FF0000EDCF1000C7EEB00006EEBFA
:100240000101B1F5801F1BD3B1F5001F0CD3490884
:100250005FEA30004FEA3C0C04F101044FEA4452DB
:1002600012F5800F80F09A80BCF1004F08BF5FEA62
:10027000500C50F1000041EB045141EA050130BD42
:100280005FEA4C0C404141EB010111F4801FA4F1E5
:100290000104E9D191F0000F04BF01460020B1FA3A
:1002A00081F308BF2033A3F10B03B3F120020CDA72
:1002B0000C3208DD02F1140CC2F10C0201FA0CF050
:1002C00021FA02F10CE002F11402D8BFC2F1200CB5
:1002D00001FA02F120FA0CFCDCBF41EA0C0190406B
:1002E000E41AA2BF01EB0451294330BD6FEA0404B4
:1002F0001F3C1CDA0C340EDC04F11404C4F120029F
:1003000020FA04F001FA02F340EA030021FA04F3B0
:1003100045EA030130BDC4F10C04C4F1200220FA07
:1003200002F001FA04F340EA0300294630BD21FA45
:1003300004F0294630BD94F0000F83F4801306BF0B
:1003400081F480110134013D4EE77FEA645C18BFFF
:100350007FEA655C29D094EA050F08BF90EA020F96
:1003600005D054EA000C04BF1946104630BD91EA8E
:10037000030F1EBF0021002030BD5FEA545C05D191
:100380004000494128BF41F0004130BD14F58004D0
:100390003CBF01F5801130BD01F0004545F0FE4144
:1003A00041F470014FF0000030BD7FEA645C1ABF79
:1003B000194610467FEA655C1CBF0B46024650EAB0
:1003C000013406BF52EA033591EA030F41F40021DC
:1003D00030BD00BF90F0000F04BF0021704730B562
:1003E0004FF4806404F132044FF000054FF0000137
:1003F00050E700BF90F0000F04BF0021704730B5F8
:100400004FF4806404F1320410F0004548BF4042CC
:100410004FF000013EE700BF42004FEAE2014FEA21
:1004200031014FEA02701FBF12F07F4393F07F4FFC
:1004300081F06051704732F07F4208BF704793F0FF
:100440007F4F04BF41F40021704730B54FF4607412
:1004500001F0004521F000411CE700BF50EA010215
:1004600008BF704730B54FF000050AE050EA0102BE
:1004700008BF704730B511F0004502D5404261EB2E
:1004800041014FF4806404F132045FEA915C3FF46F
:10049000D8AE4FF003025FEADC0C18BF03325FEA0C
:1004A000DC0C18BF033202EBDC02C2F1200300FABD
:1004B00003FC20FA02F001FA03FE40EA0E0021FAE2
:1004C00002F11444BDE600BF70B54FF0FF0C4CF4D0
:1004D000E06C1CEA11541DBF1CEA135594EA0C0F82
:1004E00095EA0C0F00F0DEF82C4481EA030621EABD
:1004F0004C5123EA4C5350EA013518BF52EA0335F8
:1005000041F4801143F4801338D0A0FB02CE4FF0A9
:100510000005E1FB02E506F00042E0FB03E54FF0D9
:100520000006E1FB03569CF0000F18BF4EF0010ED1
:10053000A4F1FF04B6F5007F64F5407404D25FEACD
:100540004E0E6D4146EB060642EAC62141EA555180
:100550004FEAC52040EA5E504FEACE2EB4F1FD0CC2
:1005600088BFBCF5E06F1ED8BEF1004F08BF5FEA40
:10057000500E50F1000041EB045170BD06F00046F2
:1005800046EA010140EA020081EA0301B4EB5C049F
:10059000C2BFD4EB0C0541EA045170BD41F4801197
:1005A0004FF0000E013C00F3AB8014F1360FDEBFBC
:1005B000002001F0004170BDC4F10004203C35DA98
:1005C0000C341BDC04F11404C4F1200500FA05F31B
:1005D00020FA04F001FA05F240EA020001F00042BC
:1005E00021F0004110EBD37021FA04F642EB060132
:1005F0005EEA430E08BF20EAD37070BDC4F10C045C
:10060000C4F1200500FA04F320FA05F001FA04F21F
:1006100040EA020001F0004110EBD37041F100010B
:100620005EEA430E08BF20EAD37070BDC4F1200516
:1006300000FA05F24EEA020E20FA04F301FA05F27E
:1006400043EA020321FA04F001F0004121FA04F226
:1006500020EA020000EBD3705EEA430E08BF20EAF6
:10066000D37070BD94F0000F0FD101F00046400030
:1006700041EB010111F4801F08BF013CF7D041EAB2
:10068000060195F0000F18BF704703F000465200B6
:1006900043EB030313F4801F08BF013DF7D043EA87
:1006A0000603704794EA0C0F0CEA135518BF95EA3D
:1006B0000C0F0CD050EA410618BF52EA4306D1D1C4
:1006C00081EA030101F000414FF0000070BD50EAE3
:1006D000410606BF1046194652EA430619D094EA6D
:1006E0000C0F02D150EA013613D195EA0C0F05D157
:1006F00052EA03361CBF104619460AD181EA0301AB
:1007000001F0004141F0FE4141F470014FF0000062
:1007100070BD41F0FE4141F4780170BD70B54FF0FD
:10072000FF0C4CF4E06C1CEA11541DBF1CEA13557D
:1007300094EA0C0F95EA0C0F00F0A7F8A4EB05045F
:1007400081EA030E52EA03354FEA013100F0888056
:100750004FEA03334FF0805545EA131343EA12631F
:100760004FEA022245EA111545EA10654FEA0026D4
:100770000EF000419D4208BF964244F1FD0404F58D
:10078000407402D25B084FEA3202B61A65EB0305E9
:100790005B084FEA32024FF480104FF4002CB6EBA6
:1007A000020E75EB030E22BFB61A754640EA0C0026
:1007B0005B084FEA3202B6EB020E75EB030E22BF66
:1007C000B61A754640EA5C005B084FEA3202B6EBA7
:1007D000020E75EB030E22BFB61A754640EA9C0066
:1007E0005B084FEA3202B6EB020E75EB030E22BF36
:1007F000B61A754640EADC0055EA060E18D04FEAF4
:10080000051545EA16754FEA06164FEAC30343EA93
:1008100052734FEAC2025FEA1C1CC0D111F4801F60
:100820000BD141EA00014FF000004FF0004CB6E759
:1008300011F4801F04BF01430020B4F1FD0C88BFF8
:10084000BCF5E06F3FF6AFAEB5EB030C04BFB6EB03
:10085000020C5FEA500C50F1000041EB045170BDF6
:100860000EF0004E4EEA113114EB5C04C2BFD4EB23
:100870000C0541EA045170BD41F480114FF0000EA7
:10088000013C90E645EA060E8DE60CEA135594EA23
:100890000C0F08BF95EA0C0F3FF43BAF94EA0C0F26
:1008A0000AD150EA01347FF434AF95EA0C0F7FF49B
:1008B00025AF104619462CE795EA0C0F06D152EAEF
:1008C00003353FF4FDAE1046194622E750EA4106D3
:1008D00018BF52EA43067FF4C5AE50EA41047FF4E4
:1008E0000DAF52EA43057FF4EBAE12E74FF0FF3C49
:1008F00006E000BF4FF0010C02E000BF4FF0010C1A
:100900004DF804CD4FEA410C7FEA6C5C4FEA430C92
:1009100018BF7FEA6C5C1BD001B050EA410C0CBFE1
:1009200052EA430C91EA030F02BF90EA020F002043
:10093000704710F1000F91EA030F58BF994208BFAA
:1009400090422CBFD8176FEAE37040F00100704767
:100950004FEA410C7FEA6C5C02D150EA013C07D1BE
:100960004FEA430C7FEA6C5CD6D152EA033CD3D009
:100970005DF8040B704700BF8446104662468C4603
:100980001946634600E000BF01B5FFF7B7FF002836
:1009900048BF10F1000F01BD4DF808EDFFF7F4FF5F
:1009A0000CBF012000205DF808FB00BF4DF808EDEA
:1009B000FFF7EAFF34BF012000205DF808FB00BF0D
:1009C0004DF808EDFFF7E0FF94BF012000205DF82F
:1009D00008FB00BF4DF808EDFFF7CEFF94BF0120E4
:1009E00000205DF808FB00BF4DF808EDFFF7C4FFDD
:1009F00034BF012000205DF808FB00BF4FEA410230
:100A000012F5001215D211D56FF47873B3EB625260
:100A100012D94FEAC12343F0004343EA505311F087
:100A2000004F23FA02F018BF404270474FF0000019
:100A3000704750EA013005D111F0004008BF6FF057
:100A4000004070474FF00000704700BF4A0011D2CD
:100A500012F5001211D20DD56FF47873B3EB625218
:100A60000ED44FEAC12343F0004343EA505323FA24
:100A700002F070474FF00000704750EA013002D199
:100A80004FF0FF3070474FF00000704753B94AB93C
:100A9000002908BF00281CBF4FF0FF314FF0FF3086
:100AA00000F074B9ADF1080C6DE904CE00F006F861
:100AB000DDF804E0DDE9022304B070472DE9F047DA
:100AC000089E04468846002B40F085808A421546E1
:100AD00048D9B2FA82F24AB1C2F1200701FA02F310
:100AE00020FA07F7954047EA030894404FEA154E6D
:100AF000230CB8FBFEF71FFA85FC0EFB178843EAB0
:100B0000084307FB0CF1994209D9EB1807F1FF30B4
:100B100080F0E380994240F2E080023F2B445B1A70
:100B2000A4B2B3FBFEF00EFB103344EA034400FB17
:100B30000CFCA44509D92C1900F1FF3380F0CB80BF
:100B4000A44540F2C88002382C4440EA0740A4EB98
:100B50000C0400271EB1D4400023C6E900433946E7
:100B6000BDE8F087002A53D0B2FA82F2002A40F0A2
:100B7000B680491B4FEA154E1FFA85F80127B1FBD5
:100B8000FEFC230C0EFB1C1143EA014308FB0CF195
:100B9000994207D9EB180CF1FF3002D2994200F2CA
:100BA000EC808446591AA3B2B1FBFEF00EFB101480
:100BB00043EA044408FB00F8A04507D92C1900F1CA
:100BC000FF3302D2A04500F2DC801846A4EB0804F3
:100BD00040EA0C40BEE78B4208D9002E78D00027AF
:100BE000C6E9000138463946BDE8F087B3FA83F715
:100BF0007FB98B4202D3824200F2BD80841A61EB3E
:100C0000030301209846002EA9D0C6E90048A6E7B4
:100C1000FFDEC7F12005BB4022FA05FC4CEA030CBD
:100C200001FA07F420FA05F821FA05F34FEA1C4E01
:100C300048EA0404B3FBFEF9210C0EFB19331FFA3A
:100C40008CF841EA034309FB08FA9A4502FA07F2D5
:100C500000FA07F10BD91CEB030309F1FF3080F018
:100C600088809A4540F28580A9F102096344A3EB8C
:100C70000A03A4B2B3FBFEF00EFB103344EA0344B4
:100C800000FB08F8A04508D91CEB040400F1FF3371
:100C90006BD2A04569D90238644440EA0940A4EB0C
:100CA0000804A0FB02894C45C6464B4654D351D09C
:100CB000002E69D0B1EB0E0264EB030404FA05F5D3
:100CC00022FA07F3FC401D43C6E90054002746E71B
:100CD0003746304643E7184637E707461FE7C2F175
:100CE000200320FA03F7954001FA02F021FA03F3FA
:100CF0004FEA154E3843010CB3FBFEF71FFA85F897
:100D00000EFB173341EA034107FB08F38B4204FA59
:100D100002F407D9691807F1FF3C28D28B4226D983
:100D2000023F2944CB1A81B2B3FBFEF00EFB103315
:100D300041EA034100FB08F38B4207D9691800F12F
:100D4000FF3C10D28B420ED902382944C91A40EA1E
:100D5000074714E74145ABD2B8EB020E69EB0C0232
:100D600001381346A4E76046F0E7184695E7674662
:100D7000D8E781467BE7384645E7ACF1020C2B44C7
:100D800010E702382C4421E73746E8E6704700BFF9
:100D90000A2310B5040900F00F0013FB040407EE4A
:100DA000904A080901F00F0113FB0011B8EEE77A31
:100DB00007EE901AF8EEE77A9FED0A6A9FED0A0AAD
:100DC00077EEC77A1109C6EE276A02F00F0213FB0D
:100DD000012307EE903AA7EE660AF8EEE77AA7EE4F
:100DE000A60A10BD295C8F3F7B14EE3F07B50A238E
:100DF000020900F00F0013FB020207EE902A0A0915
:100E000001F00F0113FB0213B8EEE77A07EE903AF8
:100E1000F8EEE77A9FED176A77EEC77AC6EE276A93
:100E2000DFED157AE7EE667A30EE670A80EE260A85
:100E300003F0E4F8B2EE047AC0EE077AFCEEE77A4B
:100E4000CDED017A9DF8043003EB8302520007EEEA
:100E5000902AF8EEE77A30EE670ABCEEC00A10EE90
:100E6000102A02F00F0040EA0310C0B203B05DF890
:100E700004FB00BF295C8F3F7B14EE3F154BDB6A00
:100E800013F0010115D0144A0121117013F004016F
:100E900013D0124A0121117013F0100111D0104A21
:100EA0000121117013F040020FD00E4B01221A7075
:100EB00070479A07EAD5084AE7E71807ECD5074ACA
:100EC000E9E79A06EED5064AEBE71B06F0D5054B97
:100ED000EDE700BF00300E408000002081000020C0
:100EE0008200002083000020094B002814BF4FF42B
:100EF00010524FF48062DA63064ADA62064B01222E
:100F0000E021C3F8802183F800131A60704700BF06
:100F100000300E40FF37DFE300E100E02DE9F84349
:100F200089462DED028B9046B0EE608A70B9234B56
:100F3000D3F8902022F00102C3F890201A6B22F01F
:100F400003021A63BDEC028BBDE8F8831C4BD3F897
:100F50004051D3F84061EDB2C6F30726314628462A
:100F6000FFF744FFB0EE480A074631462846FFF730
:100F70003DFF0446B9F1000F06D03A4631462846F7
:100F8000FFF706FF89ED000AB8F1000F06D02246F0
:100F900031462846FFF7FCFE88ED000A074B032286
:100FA000DA621A6B240444EA072442F0030244F094
:100FB00001041A63C3F89040C4E700BF00300E403C
:100FC000B081E00FF8B50F4658B9174BD3F8982009
:100FD00022F00102C3F898201A6B22F030021A6343
:100FE000F8BD124BD3F84451D3F84461EDB2C6F3C7
:100FF000072631462846FFF7F9FE044637B1024678
:1010000031462846FFF7C4FE87ED000A064B302222
:10101000DA621A6B240242F0300244F001041A63CF
:10102000C3F89840DCE700BF00300E40B081E00F0D
:10103000F8B50F4658B9174BD3F89C2022F001029F
:10104000C3F89C201A6B22F0C0021A63F8BD124B41
:10105000D3F84451D3F84461C5F30745360E314601
:101060002846FFF7C3FE044637B1024631462846FC
:10107000FFF78EFE87ED000A064BC022DA621A6B7C
:10108000240242F0C00244F001041A63C3F89C40F9
:10109000DCE700BF00300E40B081E00F074AD2F815
:1010A000B03043F48073C2F8B030054B40F20162B7
:1010B0001A604FF0FF329A60704700BF00400E4048
:1010C00000C00140F8B50D4B9D6E002D05DA5B6840
:1010D0000B4B1B680BB101209847094F00240126D8
:1010E00006FA04F32B4204D057F824300BB1002049
:1010F00098470134182CF3D1F8BD00BF0020004000
:1011000084000020024B02221A6701F003BD00BFD9
:1011100000400E40114AD36843F08073D360104AF8
:101120000223C2F8F0300F4B1B68B3FBF1F14FF410
:10113000807301391161C2F804330B4B0B4A1A60FA
:101140004FF060430A4AC3F8B02F4FF00112C3F8C2
:10115000802EC3F8400EC3F8000E7047F0ED00E09B
:10116000000004E078010020001000E0FE030040D1
:1011700055CEACC54FF0604310B5D3F8802ED207E2
:101180000AD5D3F8004E01228A40224204D01A78B0
:10119000002AFCD003F8210010BD0021FFF7EABFB0
:1011A000034AD2F8B03043F00203C2F8B0307047BF
:1011B00000400E401EF0040F0CBFEFF30880EFF369
:1011C00009808169004A1047151200001EF0040FC3
:1011D0000CBFEFF30880EFF309808169004A1047E4
:1011E000F91200001EF0040F0CBFEFF30880EFF3BC
:1011F00009808169004A1047ED1300001EF0040FBA
:101200000CBFEFF30880EFF309808169004A1047B3
:10121000ED14000000B589B00368009343680193A2
:1012200083680293C3680393036904934369059336
:10123000836906932149C3692148079302F0B6FEEA
:10124000009A1E491F48204C02F0B0FE019A1B492B
:101250001E4802F0ABFE029A18491D4802F0A6FE95
:10126000039A16491B4802F0A1FE049A13491A4832
:1012700002F09CFE059A1149184802F097FE069A62
:101280000E49174802F092FE079A0C49154802F0E1
:101290008DFE0A49144802F089FEE26A07491348A4
:1012A00002F084FE62680549114802F07FFEEFF308
:1012B000088202490F4802F079FEFEE7244200004E
:1012C000CB420000ED42000000ED00E002430000D0
:1012D000174300002C430000414300005743000027
:1012E0007E430000A9430000D7430000FF430000F5
:1012F000164400002D44000000B589B00368009337
:101300004368019383680293C3680393036904935A
:1013100043690593836906932449C3692448079365
:1013200002F044FE009A21492248234C02F03EFE7E
:10133000019A1E49214802F039FE029A1B492048B1
:1013400002F034FE039A19491E4802F02FFE049A57
:1013500016491D4802F02AFE059A14491B4802F05E
:1013600025FE069A11491A4802F020FE079A0F49F5
:10137000184802F01BFE0D49174802F017FEA26A3A
:101380000A491648D2B202F011FE626B07491448AE
:1013900002F00CFE62680549124802F007FEEFF306
:1013A00008820249104802F001FEFEE73A420000BE
:1013B00043440000ED42000000ED00E00243000065
:1013C000174300002C430000414300005743000036
:1013D0007E430000A9430000D74300007244000090
:1013E0008A440000164400002D44000000B589B076
:1013F000036800934368019383680293C36803936F
:101400000369049343690593836906932749C36974
:101410002748079302F0CAFD009A24492548264C24
:1014200002F0C4FD019A2149244802F0BFFD029A4E
:101430001E49234802F0BAFD039A1C49214802F0D4
:10144000B5FD049A1949204802F0B0FD059A1749E4
:101450001E4802F0ABFD069A14491D4802F0A6FD95
:10146000079A12491B4802F0A1FD10491A4802F0E0
:101470009DFDA26A0D491948C2F3072202F096FDAC
:10148000A26B0A49164802F091FD626807491548A7
:1014900002F08CFDEFF308820449134802F086FD48
:1014A0004FF0804301225A64FEE700BF5042000023
:1014B0007C420000ED42000000ED00E0024300002D
:1014C000174300002C430000414300005743000035
:1014D0007E430000A9430000D74300009D42000066
:1014E000B4420000164400002D44000000B589B04D
:1014F000036800934368019383680293C36803936E
:101500000369049343690593836906932249C36978
:101510002248079302F04AFD009A1F492048214CB7
:1015200002F044FD019A1C491F4802F03FFD029A57
:1015300019491E4802F03AFD039A17491C4802F067
:1015400035FD049A14491B4802F030FD059A1249F2
:10155000194802F02BFD069A0F49184802F026FDA3
:10156000079A0D49164802F021FD0B49154802F073
:101570001DFDA26A08491448C2F3CF3202F016FDDD
:1015800062680549114802F011FDEFF30882024933
:101590000F4802F00BFDFEE765420000A244000088
:1015A000ED42000000ED00E00243000017430000A0
:1015B0002C43000041430000574300007E430000DD
:1015C000A9430000D7430000C544000016440000B2
:1015D0002D4400004FF0804300221A645A651A67B8
:1015E0009A6822F001029A6070474FF0804341F6FA
:1015F00071321A6446F21A325A6547F62B421A675C
:101600009A6842F001029A60704708B5FFF7EDFF53
:101610004FF080431A6842F00B021A605A6842F099
:1016200080525A6020229A600222C3F8902003223E
:10163000C3F8982001225A64BDE80840FFF7CABFEA
:1016400008B5FFF7D2FF234B98424FF0804315D8DF
:101650005A6822F040725A604FF08042136823F4B7
:10166000805313601C4B984228D94FF08042D2F827
:10167000003143F0061343F4C06325E0174A90425B
:1016800005D85A6822F0407242F08072E3E7144AAB
:1016900090425A680ED822F0407242F000725A60AE
:1016A000104B9842D8D94FF08042136843F48053CE
:1016B0001360DAE742F040725A60F4E7D2F8003182
:1016C00023F0061323F4C063C2F80031BDE80840DC
:1016D000FFF780BF80A8120180D543020051250288
:1016E00080F9370380F0FA02F7B5594D9DF828606C
:1016F0009DF830402F68002FFCDAEFF3108772B6A8
:10170000D5F800E02EF0810EC5F800E0D5F800E035
:101710004EF0010EC5F800E09DF82050002B4FEA76
:10172000C51545EA006514BF4FF48020002005432D
:101730004748C0F8905052B1D0F89030013A43EA8F
:10174000024343F40023C0F89030C0F89410B6B1BF
:101750000023CDE900333E49D1F89020701E42EAC3
:10176000003242F40042C1F89020DAB296423CD8EE
:10177000374B009AC3F8A820019AC3F8AC20BCB13B
:10178000334BD3F8902042F40002C3F89020082C89
:10179000D3F8902085BFA4F1090142EA015204F177
:1017A000FF3142F0040298BF42EA0152C3F8902090
:1017B000274BD3F8902042F00102C3F89020D3F8D1
:1017C00090209007FBD4002C3DD1214B1A68002AB1
:1017D000FCDA1A6822F001021A601A6842F08102EB
:1017E0001A6007B962B603B0F0BD099AD25C0DF871
:1017F00003200133B9E70005C3F88C00D3F88C103F
:1018000041F00101C3F88C10D3F88C108907FBD488
:10181000D3F88C10090A02F8011BA91A082CC9B2C6
:1018200002D9601A0728E6DDD3F8A0000090D3F8AB
:10183000A43001930023D8B28142C6D91DF8030019
:10184000D0540133F7E70B9A014B1519E5E700BFB8
:1018500000C40140F0B4042A9DF81060059F9DF873
:101860001840DDF81CC09DF8205013D81F2E11D849
:10187000082C0FD804B16FB1102D0BD815B1BCF1E5
:10188000000F07D0CDE907C5CDE905740496F0BC7B
:10189000FFF72ABFF0BC704710B586B0002423467E
:1018A00022462146CDE90344CDE901440094662057
:1018B000FFF71AFFCDE90344CDE901440094234624
:1018C000224621469920FFF70FFF06B010BD00B554
:1018D00089B0012304930DF11F0303930023CDE985
:1018E000013300931A4619460520FFF7FDFE9DF8C7
:1018F0001F0009B05DF804FB00B589B00123049313
:101900000DF11F0303930023CDE9013300931A4621
:1019100019463520FFF7E8FE9DF81F0009B05DF875
:1019200004FB7FB50023CDE90333CDE901330093F8
:101930001A4619460620FFF7D7FEFFF7C8FF8307B0
:1019400002D507B05DF804FB0120002100F060FF24
:10195000F3E700B589B08DF81C008DF81D10FFF776
:10196000E0FF02220023029207AACDE90032CDE96E
:1019700003331A4619460120FFF7B6FE09B05DF899
:1019800004FB00B589B003220023049207AACDE925
:101990000232CDE900331A4619469F20ADF81C30BB
:1019A0008DF81E30FFF7A0FE9DF81D309DF81C003D
:1019B0001B0243EA00439DF81E00184309B05DF87E
:1019C00004FB7FB50023CDE90312082200920146F3
:1019D000CDE9013302228820FFF73CFF07B05DF814
:1019E00004FB7FB5FFF79DFF0023CDE90333CDE96D
:1019F000013300931A4619469820FFF775FE07B089
:101A00005DF804FB10B5FFF747FFFFF7BAFF094B7E
:101A100098420ED1FFF7E5FFFFF759FF0446FFF7A5
:101A20006BFF40F00201C9B22046BDE81040FFF74D
:101A300090BF10BD4326BF001D4AD2F8B03010B58C
:101A400043F400731B4CC2F8B0302368002BFCDA5F
:101A5000194B2360194B63600223A360184BE360AA
:101A6000184B6361184A00236362A362A263174A9A
:101A7000C4F8B030C4F8B4204FF0C062C4F8E42019
:101A8000C4F8083140F2E313C4F80431084B0322D0
:101A9000C3F8642101F03EF82368064A43F00103CD
:101AA00023601368002BFCDABDE81040FFF7AABFE3
:101AB00000400E4000C4014088000100BB1011002E
:101AC0000000020202100C00050001052B00198025
:101AD0002F4AD2F8B03043F0200310B5C2F8B0302E
:101AE0002C4B2D4A4FF0501119605A602B4A9A60C6
:101AF000082000224FF07014D8609A621C6343F2F1
:101B000034345C63264C9C630124DC63254C9A6569
:101B100019665C6644F244149C664FF48074DC667B
:101B2000214CC3F88820C3F89010C3F894401F4C90
:101B3000C3F89840C3F89C004FF48620C3F8B8203F
:101B4000C3F8C010C3F8C4001948C3F8C800102077
:101B5000C3F8CC00C3F8E820C3F8F0101549C3F867
:101B6000F4104FF44C31C3F8F8108021C3F8FC1086
:101B7000C3F81821D3F8401421F00C01C3F8401425
:101B8000D3F840140143C3F84014C3F8442410BDF3
:101B900000400E4000800840144404030000344418
:101BA00000B40B0014140033144411114044040019
:101BB0003044BB304404004470B51B4CE36CC3F3A9
:101BC0000743103B6A2B96BF184A194B52F8233033
:101BD000626BC2F307224A2A86B020D04C2A05D075
:101BE0004D2A03D0512A14BF3F225122656B15F0B4
:101BF000FF0516D0012D0CBF49263F26E56C646B0E
:101C00000296C4F30744CDE90324ADB24FF4006259
:101C100001920095074A02F0DDF906B070BD3F223F
:101C2000E4E74726EAE700BFB081E00FDC440000AC
:101C3000924600009446000070B52DED048B012003
:101C40008EB0FFF751F9D44C87214FF4007001F0AA
:101C5000FFFA8721062001F011FB01F0DBF9D4F82F
:101C60006C12CE4A41F00071012001F0A1FACC4A79
:101C7000D4F80C11012001F0C7FA00F04BFFFFF778
:101C800041FAC8490320FFF745FAFFF7BEFC00F010
:101C9000A7FDFFF71DFF00F03DFD00F06DFDFFF714
:101CA0007FFAFFF7FBF901F0A5FBFFF7C5FEDFEDBB
:101CB000BE0A9FEDBE0A02AA03A90120FFF72EF972
:101CC00004A9B0EE040A0120FFF77CF99FEDB80AE1
:101CD00005A90120FFF7ACF9DFEDB67ADDED049A36
:101CE0009DED059AB4480223CDE90033012200217D
:101CF00079EEA79A39EE279A01F0D6FA0622114614
:101D0000002000F099FD01221146002000F04EFE57
:101D100006A82021FFF750FF06AAA849A84802F00C
:101D200045F9A849A8480B698A69C9691B02C1F32A
:101D3000031103F47C530B4302F0F0021A439F4952
:101D400002F034F922689D49A048C2F3074202F02C
:101D50002DF94FF4006299499D4802F027F94FF49C
:101D6000007296499B4802F021F9012002F076F9B1
:101D7000EFF308852D1A02F079F92A468F49964823
:101D8000DFED968A9FED968A964D974E02F00EF9FA
:101D9000626C8A49236C9548954C02F007F9002241
:101DA000944B8649944802F001F9944BD3ED007AA4
:101DB000F8EE677AC7EEA87A17EE900AFEF72CFBCA
:101DC00002460B468E487D4902F0F0F88D4BD3ED6C
:101DD000007AF8EE677AC7EEA87A17EE900AFEF757
:101DE0001BFB02460B468848744902F0DFF8874B1C
:101DF000D3ED007AF8EE677AC7EEA87A17EE900A6C
:101E0000FEF70AFB02460B4681486C4902F0CEF809
:101E10005FA3D3E9002369497E4802F0C7F87E4BEF
:101E2000D3ED007AF8EE677AC7EE887A17EE900A5B
:101E3000FEF7F2FA02460B467848604902F0B6F81F
:101E4000774BD3ED007AF8EE677AC7EE887A17EE13
:101E5000900AFEF7E1FA02460B467248574902F033
:101E6000A5F8714BD3ED007AF8EE677AC7EEA87A41
:101E700017EE900AFEF7D0FA02460B466B484F4920
:101E800002F094F86A4BD3ED007AF8EE677AC7EE69
:101E9000A87A17EE900AFEF7BFFA02460B4665488D
:101EA000464902F083F8644BD3ED007AF8EE677A86
:101EB000C7EEA87A17EE900AFEF7AEFA02460B4676
:101EC0005E483E4902F072F85D4BD3ED007AF8EEC1
:101ED000677AC7EEA87A17EE900AFEF79DFA0246D7
:101EE0000B465848354902F061F8574BD3ED007A5C
:101EF000F8EE677AC7EEA87A17EE900AFEF78CFA2A
:101F000002460B4651482D4902F050F8504BD3ED94
:101F1000007AF8EE677AC7EEA87A17EE900AFEF715
:101F20007BFA02460B464B48244902F03FF84A4BE5
:101F3000D3ED007AF8EE677AC7EEA87A17EE900A2A
:101F4000FEF76AFA02460B4644481C4902F02EF896
:101F5000434BD3ED007AF8EE677AC7EEA87A17EE16
:101F6000900AFEF759FA02460B463E48134902F022
:101F70001DF83D4BD3ED007AF8EE677AC7EEA87AEC
:101F800017EE900AFEF748FA02460B466EE000BFD5
:101F9000000000E04D624040B081E00F00127A0086
:101FA0000048E80180841E007B144E40666646406F
:101FB0009A994940F4FDD43C80A81201884600005B
:101FC000AD460000D0FF0FE0C1460000E246000031
:101FD0000B470000274700004147000000247449D8
:101FE00000007A44A6460000114F00005A47000046
:101FF000AA460000000020407847000008000020AA
:102000009D47000014000020C3470000040000208A
:10201000EB470000144800000C0000203948000085
:10202000100000205F4800003C01002086480000AE
:1020300064010020AC48000040010020CF480000AF
:1020400028010020F54800004C0100201C49000038
:102050005C01002042490000500100206849000056
:10206000480100208F49000014010020D448D549C0
:1020700001F09CFFD44BD3ED007AF8EE677AC7EEFF
:10208000A87A17EE900AFEF7C7F902460B46CF482A
:10209000CC4901F08BFFCE4BD3ED007AF8EE677A96
:1020A000C7EEA87A17EE900AFEF7B6F902460B467D
:1020B000C848C44901F07AFFC74BD3ED007AF8EE67
:1020C000677AC7EEA87A17EE900AFEF7A5F90246DE
:1020D0000B46C248BB4901F069FFC14BD3ED007A02
:1020E000F8EE677AC7EEA87A17EE900AFEF794F931
:1020F00002460B46BB48B34901F058FFBA4BD3ED3B
:10210000007AF8EE677AC7EEA87A17EE900AFEF723
:1021100083F902460B46B548AA4901F047FFB44B84
:10212000D3ED007AF8EE677AC7EEA87A17EE900A38
:10213000FEF772F902460B46AE48A24901F036FF9F
:10214000AD4BD3ED007AF8EE677AC7EEA87A17EEBA
:10215000900AFEF761F902460B46A848994901F03A
:1021600025FFA74BD3ED007AF8EE677AC7EE887AA1
:1021700017EE900AFEF750F902460B46A148914926
:1021800001F014FFA04BD3ED007AF8EE677AC7EEAA
:10219000887A17EE900AFEF73FF902460B469B48F5
:1021A000884901F003FF9A4BD3ED007AF8EE677A85
:1021B000C7EE887A17EE900AFEF72EF902460B4614
:1021C0009448804901F0F2FE934BD3ED007AF8EE8B
:1021D000677AC7EE887A17EE900AFEF71DF9024675
:1021E0000B468E48774901F0E1FE8D4BD3ED007A26
:1021F000F8EE677AC7EE887A17EE900AFEF70CF9C8
:1022000002460B4687486F4901F0D0FE864BD3ED5E
:10221000007AF8EE677AC7EE887A17EE900AFEF732
:10222000FBF802460B468148664901F0BFFE804B31
:10223000D3ED007AF8EE677AC7EE887A17EE900A47
:10224000FEF7EAF802460B467A485E4901F0AEFE18
:10225000794BD3ED007AF8EE677AC7EE887A17EEFD
:10226000900AFEF7D9F802460B467448554901F02A
:102270009DFE734BD3ED007AF8EE677AC7EE887A4D
:1022800017EE900AFEF7C8F802460B466D484D4916
:1022900001F08CFE6C4BD3ED007AF8EE677AC7EE56
:1022A000887A17EE900AFEF7B7F802460B466748A1
:1022B000444901F07BFE664BD3ED007AF8EE677A75
:1022C000C7EE887A17EE900AFEF7A6F802460B468C
:1022D00060483C4901F06AFE5F4BD3ED007AF8EEAE
:1022E000677AC7EE887A17EE900AFEF795F80246ED
:1022F0000B465A48334901F059FE594BD3ED007A49
:10230000F8EE677AC7EE887A17EE900AFEF784F83F
:1023100002460B4653482B4901F048FE524BD3ED81
:10232000007AF8EE677AC7EE887A17EE900AFEF721
:1023300073F802460B464D48224901F037FEDDEDA9
:10234000037A67EE887A17EE900AFEF765F8024680
:102350000B4647481B4901F029FEDDED027A67EE86
:10236000887A17EE900AFEF757F802460B46414866
:10237000144901F01BFE01F05DF810EE100AFEF7A3
:102380004BF802460B463C480E4901F00FFE3B4B12
:102390000C491A783A48002A14BF2A46224601F00E
:1023A00005FEDDED047A67EE887A17EE900AFEF7F7
:1023B00033F802460B463348024901F0F7FD63E06B
:1023C000B64900008846000044010020DB490000B7
:1023D00060010020004A000008010020254A00009A
:1023E00020010020494A00002C0100206E4A000014
:1023F00078010020934A000058010020B74A0000ED
:1024000010010020DB4A000068010020FF4A0000A4
:102410006C010020274B0000700100204B4B000096
:10242000040100206F4B00001C010020984B0000AD
:1024300024010020C14B000074010020E54B000086
:10244000340100200D4C000018010020354C000024
:102450000C0100205D4C000054010020824C000063
:1024600038010020A64C000030010020CA4C0000BA
:10247000EF4C00001C4D0000494D00008000002082
:102480006E4D00008D4D000069EE887A17EE900ABF
:10249000FDF7C2FF02460B464648474901F086FD5C
:1024A00001F00CF810EE100AFDF7B6FF02460B46DD
:1024B0004248414901F07AFD414B3F491A78414871
:1024C000002A14BF2A46224601F070FDDDED057A90
:1024D00067EE887A17EE900AFDF79EFF02460B46DC
:1024E0003948354901F062FD69EE087A17EE900A25
:1024F000FDF792FF02460B4634482F4901F056FD86
:1025000001F020F810EE100AFDF786FF02460B4698
:102510002F48294901F04AFD2E4B27491A782E48A9
:10252000002A14BF2A46224601F040FD01F04EF871
:1025300010EE100AFDF770FF02460B4627481E49B1
:102540001D4D01F033FD6420002100F061F91A49AE
:10255000234801F02BFD08246000002201231146CE
:1025600000F0FE0000F0A6F920B1224629463046D0
:1025700001F01CFD0134782CEED10F4919480E4DA5
:10258000194E01F013FD08246000002201231146BA
:1025900000F0FE0000F046FA20B1224629463046FF
:1025A00001F004FD0134782CEED100200EB0BDEC1A
:1025B000048B70BDBA4D000088460000E74D000056
:1025C000820000200C4E00002B4E0000594E0000EF
:1025D000874E000083000020AD4E0000CD4E00006D
:1025E000F24E0000324F0000114F00002DE9F04381
:1025F00039493A48DFF8E080DFF8149189B001F0FA
:10260000D5FC374B1C682568002D5CD1FFF7B9F964
:1026100031490246334801F0C9FC082206A9284680
:10262000FFF7CFF99DF81F3005939DF81E300493F6
:102630009DF81D3003939DF81C3002939DF81B30CC
:1026400001939DF81A3000939DF818209DF81930D9
:102650002149254801F0AAFC4FF040431E491A7851
:10266000224801F0A3FC224B1B491A781F4801F0B5
:102670009DFC204B18491A781C4801F097FC1E4B12
:1026800015491A78194801F091FC1C4B12491A7827
:102690001B4801F08BFC4FF07E630F491A781948F4
:1026A00001F084FC184B1949D3E9002312F5FA769E
:1026B00043F10007D1E900239F4208BF9642F9D2B7
:1026C000D1E90023F2E762682B464146484601F013
:1026D0006DFC083497E700BF8D460000514F0000A5
:1026E00000000020904F0000AD4F0000E14F0000BF
:1026F000010000C0020000C0030000C00000E10FA4
:10270000F84F00000F500000E8000020F00000200B
:10271000744F000008B5164BD3F8B02042F0010208
:10272000C3F8B020D3F8302122F00302C3F83021DF
:10273000D3F8F02042F00102C3F8F02000F0EAF9EB
:102740000C4B49F214021A6000225A609A6040F25F
:10275000E7325A6402221A6540F2FF721A625A6A1C
:1027600042F004025A621A6842F001021A6008BD7F
:1027700000400E4000200640114AD2F8C03043F01D
:102780008073C2F8C0300F4B40F608121A601A6806
:1027900022F480721A601A6842F001021A605A68C4
:1027A000032AFCD9D3F800211A61D3F800215A6119
:1027B000D3F800219A61D3F80021DA61704700BF95
:1027C00000400E4000D00140044930B5D1E900235B
:1027D000541C43F10005C1E9004530BDF000002064
:1027E000084B4FF47A721B68B3FBF2F3064A013BC5
:1027F00053600023936007231360044BE02283F8A7
:10280000232070472801002010E000E000ED00E0E8
:10281000084B2DE9F043D3E90045D3E90089B8EB33
:10282000040669EB05078F4208BF8642F5D3BDE871
:10283000F08300BFF0000020082910B528D8082A2E
:1028400026D8174CD4F8C03043F40033C4F8C03055
:10285000A4F5B6244FF48073236042EA01220323D7
:102860006364A264A8B90F4B0F4A1B68B3FBF2F371
:102870000922083BB3FBF2F3013B23610B4B1A68BF
:1028800042F001021A6020225A609A68D207FCD4F2
:1028900010BD0128F2D1034B054A1B68E6E700BFD3
:1028A00000400E4048010020A08601000090084032
:1028B000801A0600F0B53B4C3B4DE5630125656091
:1028C00040F20365666B2E42FCD0656B15F4C06F59
:1028D00003D0202363600020F0BDE062314C656BC3
:1028E00015F4D86FFBD0656B15F4C06FF1D1656B33
:1028F0002D060DD5022363602A4BD86B10F4E060DF
:10290000FBD15A6B12F4C06FE5D020225A60E3E786
:10291000EAB1244C013100F00100082504264027CB
:10292000C0B1D4F834C01CF4C46FFAD0D4F834C0A9
:102930001CF4C06FCDD1D4F81CC001F801CC012A21
:102940008CBF66606560013A01F10101E8D1EBB925
:102950000120C1E7E76311F801CCC4F82CC0D4F81A
:1029600034C01CF4D86FFAD0D4F834C01CF4C06F53
:10297000AFD1D4F834C01CF0800FE4D002236360E0
:10298000084BD86B10F4E060FBD1BAE7054B02228C
:102990005A60D86B10F4E060FBD15A6B12F4C06F30
:1029A000D6D0B2E700900840CFFF0700082910B545
:1029B00026D8082A24D8164CD4F8C03043F48023F3
:1029C000C4F8C030134B4FF480741C6042EA0122FB
:1029D00003245C649A64A0B90F4A10491268B2FBE0
:1029E000F1F20921083AB2FBF1F2013A1A611A68D0
:1029F00042F001021A6020225A609A68D207FCD481
:102A000010BD0128F3D1044A05491268E7E700BF69
:102A100000400E400094084048010020A0860100BC
:102A2000801A0600F0B5394C394DE5630125656023
:102A300040F20365666B2E42FCD0656B15F4C06FE7
:102A400003D0202363600020F0BDE062656B15F4C5
:102A5000D86FFBD0656B15F4C06FF2D1656B2D0696
:102A60000CD502236360E06B10F4E060FBD1636B74
:102A700013F4C06FE7D020236360E5E7E2B10131D2
:102A800000F00100082504264027C0B1D4F834C066
:102A90001CF4C46FFAD0D4F834C01CF4C06FD0D189
:102AA000D4F81CC001F801CC012A8CBF66606560B7
:102AB000013A01F10101E8D1E3B90120C4E7E7637C
:102AC00011F801CCC4F82CC0D4F834C01CF4D86F71
:102AD000FAD0D4F834C01CF4C06FB2D1D4F834C0EA
:102AE0001CF0800FE4D002236360E06B10F4E06020
:102AF000FBD1BCE702236360E06B10F4E060FBD124
:102B0000636B13F4C06FD8D0B5E700BF00940840E2
:102B1000CFFF0700A149D1F890309B0430B518D5FC
:102B20004A6C4B6CC2F30B42013207EE902AC3F39E
:102B30000B030133F8EEE76A07EE903A0B6CB8EE40
:102B4000E77A03F01803082BC6EE877A25D013D84E
:102B5000CBB1934B91491868924B1860D1F89420EF
:102B6000914B02F00702013A062A24D8DFE802F06E
:102B70001E21808285898B00102B11D0182BE8D163
:102B80009FED8A7A01E09FED8A7A8A4B67EE877A19
:102B9000FCEEE77AC3ED007ADBE79FED877AF4E796
:102BA000864B93ED007AB8EE477AEEE7814A1268D9
:102BB00000E0834A1A601C68D1F80031814AC3F3EF
:102BC00004230133B4FBF3F31360D1F8002102F0C6
:102BD0004072B2F1807F58D0B2F1007F57D012B965
:102BE0005A0879490A606D4A784DD2F80411C1F348
:102BF00008210131B3FBF1F12960D2F80811744DBD
:102C0000C1F308210131B3FBF1F12960D2F81411AD
:102C1000704DC1F304210131B3FBF1F12960D2F809
:102C20000C116D4DC1F308210131B3FBF1F12960A5
:102C3000D2F81811694DC1F308210131B3FBF1F14C
:102C40002960D2F81C11664DC1F308210131B3FB94
:102C5000F1F12960D2F86011624D01F003010229FF
:102C60001AD0032927D0012913D05249096811E04D
:102C70005D4A9CE74FF400429CE74E4A12685208B6
:102C800098E74E4A93E7002294E79A08A9E7DA0802
:102C9000A7E74B49296000E02860D2F86421534936
:102CA00002F00302022A0BD0032A16D0012A04D014
:102CB000404A126802E04149D8E7414A0A6000E010
:102CC0000860364AD2F8F01101F00701052914D83E
:102CD000DFE801F005090C525458384AE9E7374A51
:102CE0001168434A08E0424A354905E0526A12F049
:102CF000080F3F4AF8D03F491160284A126F02F08E
:102D00000302012A46D0002A3ED0022A3FD023499E
:102D1000394AD1F85C3103F03003102B7AD073D8E4
:102D2000002B7AD0D1F85C31156803F0030301332E
:102D3000B5FBF3F31360D1F85C31304A03F4401370
:102D4000B3F5801F73D06AD8002B73D0134B106873
:102D5000D3F85C11C1F301410131B0FBF1F1116015
:102D6000D3F88010264A01F00701042966D8DFE86D
:102D700001F063999C659F000E4AB1E71C4A4FF42D
:102D80000041B9E7184AABE71E4B1860BFE7094B93
:102D90001B685B081B4A1360B9E700BF00400E4088
:102DA00004000020580100203C0100200000000029
:102DB0000024F44A0800002000000047140000200E
:102DC00000127A006401002014010020400100205C
:102DD000280100204C0100205C010020500100204F
:102DE00048010020600100200C0000204401002068
:102DF000080100200024F400200100202C01002004
:102E00001001002078010020202B05D0302B89D123
:102E1000146087E7106085E7594B136082E7B3F5CC
:102E2000001F06D0B3F5401F90D114608EE71060EC
:102E30008CE7534B136089E700211160D3F8201110
:102E400012685048C1F3012102FA01F10160D3F880
:102E500020114D48C1F3034102FA01F10160D3F89A
:102E600020114A48C1F3023102FA01F10160D3F89E
:102E70002011474801F00F0102FA01F10160D3F877
:102E80002011C1F303118A4042490A60D3F884201B
:102E9000414B02F00702042A0ED8DFE802F00B3A99
:102EA0003D4042003D490968C7E74FF40041C4E78F
:102EB0003B49F8E700221A601A683A4B3A48D3F8BF
:102EC000281101F0030102FA01F10160D3F8281181
:102ED0003648C1F3011102FA01F10160D3F828115B
:102EE0003348C1F3032102FA01F10160D3F828113C
:102EF000C1F3013104318A402E490A60D3F88C2095
:102F000002F00702042A11D8DFE802F00D1C20109D
:102F10002400224A1268CEE74FF40042CBE7264A4B
:102F2000F8E71F4AF6E7254A00211160D3F8882008
:102F3000234B02F00702042A10D8DFE802F00D1933
:102F40001C0F1F00154A11681C4AEEE71B4A4FF47C
:102F50000041EAE7124AF6E700221A60114A1B68AC
:102F6000D2F8302102F003029340164A136030BDBC
:102F70000A4A1268F1E74FF40042EEE7084AF8E720
:102F800000127A00680100206C010020700100200E
:102F9000040100201C010020240100200C0000205E
:102FA0001000002000400E40740100203401002079
:102FB000180100200C010020140100205401002001
:102FC0003801002030010020054B9842054B1A685B
:102FD00094BF22F4803242F480321A60704700BFFE
:102FE0000048E80100400E40084BD3F89020D2047E
:102FF0000AD4D3F84021D201FBD41861D3F8402180
:10300000D201FBD4024B1960704700BF00400E4054
:1030100008000020614B70B5D3F89050D3F86021C0
:1030200002F00302012A03D0D3F86021940706D1ED
:103030008122C3F86021D3F890209003FBD4574B32
:10304000D3F89060D3F8642102F00302012A03D080
:10305000D3F86421910706D18122C3F86421D3F803
:1030600090205203FBD44D4AD2F89030DC0406D5B0
:103070004FF400531366D2F89030D804FBD4D2F842
:10308000903013F0040F454B05D008211166D3F89A
:1030900090205107FBD410225A624FF400529A62DA
:1030A0001A6B42F000621A6347F28C025A630422E0
:1030B0001A663A4B1C46D3F890201207FBD5022221
:1030C0005A67D4F8943003F00703022BF9D1344B3C
:1030D0003449D3F8C00040F00060FFF785FF0623B5
:1030E0002364314B63644FF4805323662B4CD4F834
:1030F00090309804FBD52D48FFF766FF2948FEF76E
:103100009FFA00234FF48072C4F80031C4F8042100
:10311000C4F80831C4F80C21C4F81431C4F81831CB
:10312000C4F81C21236843F48013236001236367E0
:103130001A4BD3F8942002F00702012AF9D1D3F8F0
:10314000602102F00302012A0ED1D3F8602122F09F
:103150008002C3F86021114B05F40035D3F89020AC
:10316000910301D4002DF9D10C4BD3F8642102F066
:103170000302012A0DD1D3F8642122F08002C3F8A2
:10318000642106F48026D3F89020520301D4002E47
:10319000F9D1024B0422C3F8882070BD00400E40D4
:1031A000B081E00F00A24A046300830300512502AE
:1031B000134B10B5D3F8F441E40707D438B94FF4F2
:1031C00000621A66D3F890205405FBD410BDD3F8E2
:1031D00040014000FBD49960094B1946D3F84001E7
:1031E0004400FBD4D3F89000400506D44FF480602F
:1031F0001866D1F890301B05FBD5024B1A60E5E745
:1032000000400E40140000200F4B30B920221A66F7
:10321000D3F89020D206FBD47047D3F84001800148
:10322000FBD49961D3F840118801FBD4D3F89010F6
:10323000C90606D4102119660349D1F890309B06BF
:10324000FBD5024B1A60704700400E40040000207E
:10325000084AD2F890305B070AD4D36A1B0DC0F33A
:103260000A001B050343044800EAC1200343D3625C
:10327000704700BF00400E4000F80F00084AD2F827
:1032800090305B070AD4136B1B0DC0F30A001B05BB
:103290000343044800EAC12003431363704700BF9F
:1032A00000400E4000F80F00F0B5082B9DF91460A7
:1032B0009DF8184042DC082E40DC082C3ED8204FF8
:1032C000D7F8C05045F08005C7F8C050012A1D4D01
:1032D0004FEA41224FEAC11140F68A6702F40072B8
:1032E00001F48071EF6042EA01020CBF4FF4806785
:1032F00000273A4342F001022A6005226A60124A1E
:1033000040001268B2FBF0F2013A002E4FEA0222AE
:103310006A6126EAE676ACBF022200222406002B70
:10332000A8BF42F0010244EA0624002BA8BF1C43B8
:1033300042F0080215236A67AC67EB60F0BD00BF7E
:1033400000400E40000001405C010020FEE7704795
:1033500008B51D4A1D4B1E498B4227D31D4B1E4AE3
:103360001E498B4227D31E4B1E4A0021934227D36E
:10337000FFF7EDFF1C4B1D4A9A601D4ADA604FF4BF
:10338000E0225A621A6942F010021A615A6942F048
:1033900010025A61D3F8882042F47002C3F88820E2
:1033A000FEF74AFCFFF722F972B6FEE752F8040B6B
:1033B00043F8040BD0E752F8040B43F8040BD0E7B2
:1033C00043F8041BD2E700BFB85200000000001011
:1033D0000000001000000020B85200007C00002017
:1033E000800000208C01002000ED00E000000000C3
:1033F0000005FA0508B50B4BD3F8C02042F4801243
:10340000C3F8C020D3F8C02042F40012C3F8C02093
:10341000054AC3F85C21FFF77DFB044B044A1A60A0
:1034200008BD00BF00400E401301130100200840FA
:10343000C04F07831B4BDA6812F4985FFBD11A4A1E
:103440001A614FF480425A615A6B22F4FF4222F013
:103450007F025A63154A526E596BC2F30E420A43F9
:103460005A631A6B124922F00F021A631A6B22F088
:103470000F020A639A6842F001029A60094B9A6B44
:10348000D207FCD59B6C9FED0B0A1B0907EE903A07
:10349000F8EEE77A67EE807A9FED070A27EE800A5A
:1034A000704700BF0020084078E0FF07B081E00FC0
:1034B0000024084000409C45000080391B4BDA681E
:1034C00012F4985FFBD11A4A1A614FF480425A6194
:1034D0005A6B22F4FF4222F07F025A63154A526E61
:1034E000596BC2F30E420A435A631A6B124922F017
:1034F0000F021A631A6B22F00F020A639A6842F0F5
:1035000001029A60094B9A6BD207FCD59B6C9FED28
:103510000B0A1B0907EE903AF8EEE77A67EE807A1D
:103520009FED070A27EE800A704700BF0020084081
:1035300078E2FF07B081E00F0024084000409C457E
:10354000000080391B4BDA6812F4985FFBD11A4AED
:103550001A614FF480425A615A6B22F4FF4222F002
:103560007F025A63154A526E596BC2F30E420A43E8
:103570005A631A6B124922F00F021A631A6B22F077
:103580000F020A639A6842F001029A60094B9A6B33
:10359000D207FCD59B6C9FED0B0A1B0907EE903AF6
:1035A000F8EEE77A67EE807A9FED070A27EE800A49
:1035B000704700BF0020084078E5FF07B081E00FAA
:1035C0000024084000409C45000080391B4BDA680D
:1035D00012F4985FFBD11A4A1A614FF480425A6183
:1035E0005A6B22F4FF4222F07F025A63154A126E90
:1035F000596BC2F30E420A435A631A6B124922F006
:103600000F021A631A6B22F00F020A639A6842F0E3
:1036100001029A60094B9A6BD207FCD59B6C9FED17
:103620000B0A1B0907EE903AF8EEE77A67EE807A0C
:103630009FED070A27EE800A704700BF0020084070
:1036400038E4FF07B081E00F0024084000401C452B
:10365000000080399A4238BF8854704770472DE97E
:10366000F74F9B46DDE91173814613F002008A464D
:103670001646DDE90C549DF838C00190DDE90F21B4
:103680004FF0300E44D003F0030001284FF0300E0D
:1036900046D013F0100F18D0A14201D0A74244D158
:1036A000002C79D0102A04F1FF3147D1002941D0F4
:1036B000023C990673D41F2C73D878222A55013402
:1036C0001F2C6ED830222A550134BC4206D1BCF1E1
:1036D000000F02D113F00C0F57D07C1E1F2C05D801
:1036E000BCF1000F54D02D232B550134C0B3254419
:1036F0004FF00008444506EB080235D1019B002B32
:1037000040D1104603B0BDE8F08F05F804E0013465
:10371000A142B8D9202CF8D1B5E705F804E001346E
:10372000A742B6D9202CF8D1B3E7102AC1D01F2C5C
:10373000DCD8C7E70C46BCE75822BFE70C46C1E718
:103740001B07D3D52023CFE7561C5B4651462020CC
:10375000C847324608EB02039F42F5D81646C6E733
:103760003246A4EB0608F5E75B46514615F8010D15
:10377000C84708F10108BDE7541C5B4651462020AC
:10378000C8472246BA42F7D3BBE71F2F3C46ADD805
:103790005A07D5D52B23A7E7102A93D189E71F2CE9
:1037A000CAD9BC4293D0A1E72DE9F04391B0DDF82E
:1037B00074C0189D1A9F1CF4806F00D0A5B31CF034
:1037C000200F0DF1200E4FF0000614BF4FF0370808
:1037D0004FF05708B5FBF7F907FB19595FFA89F461
:1037E000B9F1090F94BF30344444E4B2BD420EF83D
:1037F000014BB5FBF7F406F1010601D3202E11D1E0
:103800001C9C05941B9CCDF818C0CDE903749DF851
:103810006440CDE9016408AC0094FFF720FF11B0CB
:10382000BDE8F0832546D5E72E46E9E72DE9F04FC0
:1038300093B09146249D6A05074688469A4603D56B
:10384000DDE91C3423433BD015F0200F14BF372390
:1038500057230AAE00240993DDE92023DDE91C018A
:10386000FDF714F9D2B2092A8ABF099B3032D21867
:10387000D2B2DDE920BC06F8012BDDE91C2363454B
:1038800008BF5A4504F1010401D3202C15D1239B14
:103890000593229B0493209B03939DF87830069513
:1038A000CDE901430AAB00934A46534641463846A8
:1038B000FFF7D5FE13B0BDE8F08FCDE91C01CBE7D3
:1038C0000024E4E708B1FDF768BC70470000000081
:1038D0002DE9F04F9FB09A460B1E0C93DDF8A0B077
:1038E000B54B18BF034691460B9300244AE32528A5
:1038F0000AF1010A07D0651C22464B46DDE90B415F
:10390000A0472C463EE3002506E02D2B16D0302B99
:103910000CD145F001059246524612F8013B2B2B83
:103920000FD0F2D8202B0FD0232B10D0A3F13001D1
:1039300009292ED800230D930A2011E045F0020535
:10394000E9E745F00405E6E745F00805E3E745F05B
:103950001005E0E70D9900FB0133303B0D939246D3
:10396000524612F8013BA3F130010929F2D99AF825
:1039700000302E2B48D19AF80120A2F130010929FC
:103980000AF1010345F4806536D89A4600260A21DB
:1039900013E02A2B09D15BF8043B002BBCBF5B4230
:1039A00045F002050D939246E1E700230D93DEE713
:1039B00001FB0602A2F130069A46534613F8010BAA
:1039C000A0F13002092AF3D9534613F8012B6C2ACF
:1039D00023D01BD8682A29D06A2A31D053469A4668
:1039E0001AF8010B662836D000F2C48058282AD174
:1039F00045F020051023C7E02A2A04D15BF8046BA8
:103A00000AF1020AE0E79A460026DDE7742A01D0AF
:103A10007A2AE3D145F48075E1E79AF801206C2A0F
:103A2000F8D145F440750AF10203D8E79AF801206D
:103A3000682A02D045F08005D1E745F0C005F2E7DD
:103A400045F40075CBE700F2868025283FF453AF9C
:103A500046287FF450AF0BF1070B2BF0070BBBECA4
:103A6000027B0022002351EC170B8DED0E7BFCF73F
:103A70009DFF002800F00B81DDE90E2300200021CE
:103A8000FCF76AFBCDE90E01012311936A0540F1B1
:103A90000081092E28BF09261096DDE90E01FCF7EA
:103AA000ADFF109A454B03EBC20393ED007B064636
:103AB0008DED127BFCF79EFC02460B46DDE90E0104
:103AC000FCF74AFBDDE91223FCF7FEFCCDE914010B
:103AD000FCF7BCFF0746FCF77DFC02460B46DDE920
:103AE0001401FCF739FB0022354BCDE91401FCF73A
:103AF0007BFF002800F0D08001373846FCF76AFCD5
:103B000002460B46DDE91201FCF75AFF08B1013607
:103B1000002727A3D3E90023DDE90E01FCF764FFAA
:103B200000287FF4E2AE109B002B40F0D48030469A
:103B3000FCF760FC02460B46DDE90E01FCF70CFBCE
:103B400000221F4B07468846FCF74EFF002800F076
:103B5000B2800136B9E0632800F06081642802D0A9
:103B600062287FF4C8AE622825F0100540F0DA81A3
:103B7000022309E0702800F0B28123D86928F2D02E
:103B80006F287FF4B8AE082315F4007225F00C01FD
:103B90005DD00D9A0891CDE906620022CDE904328C
:103BA0000BF1070B2BF007070292F7E80223DFE186
:103BB0000000C0FFFFFFDF415D36000060520000E3
:103BC0000000E03F7528CED078283FF413AF73286B
:103BD0007FF491AE5BF8047B3B469846013398F83E
:103BE0000020002AF9D115F48063A8EB0708109390
:103BF00002D0B04528BFB04615F002030E9300F086
:103C000047812246D41B4BE1E8050BF1040713D58D
:103C1000DBF800300D990292CDE90361DA0F002B39
:103C200005950192B8BF5B4200934B462246DDE901
:103C30000B01FFF7B9FDA3E115F0400FDBF80030F1
:103C400001D0DBB2E6E7290648BF1BB2E2E7E80590
:103C50000BF1040708D505910D99CDE90123CDE9B4
:103C60000361DBF80030DFE715F0400FDBF80020E0
:103C700009D0D2B205910D9902930023CDE90361D9
:103C8000CDE90023D1E7280648BF92B2F2E71190B0
:103C9000FCE60623109300E70022A14BDDE91401A6
:103CA000FCF77AFE00283FF434AF17B1FB077FF52D
:103CB00030AF01372DE70022994B38464146FCF7DB
:103CC0006BFE10B1F7073FF544AF109A16AB1344E3
:103CD00090460A225CE016AA4FF001080A20B7FBC2
:103CE000F0F100FB11733033B8F1200F02F8013B03
:103CF0001DD0092F08F1010311D8434616AA30211F
:103D00001098834208F101080CD1109BCDF8408037
:103D10001EAA13441A462E2302F8203CD5E79846E3
:103D20000F46DCE7B8F11F0F99544346E8D905F078
:103D30000303012B16AA4FF0300131D00D9A9045A4
:103D400007D1119A1AB915F00C0F00F0DD8008F1B7
:103D5000FF38B8F11F0F0AD8119A002A00F0D88056
:103D60001EAA42442D2102F8201C08F10108EBB9DB
:103D70002246A8EB04062BE096FBF2F102FB11664B
:103D8000303603F8016B08F101080E460029CED049
:103D9000B8F1200FF0D1CAE708F8021008F10108C5
:103DA0000D988045CAD2B8F11F0FF5D916AB434420
:103DB0001093002719E02807D9D51EAA42442021D4
:103DC000D1E7571C4B460C990B9C2020A0473A4644
:103DD0000D99B3189942F4D81446E7E710980C9956
:103DE00000780B9E4B46B0470137109B474503F1C7
:103DF000FF3307EB04021093F0D1A907144640F1FA
:103E0000C1800D9BA34240F2BD80651C22464B46FB
:103E10000B9C0C992020A0472C46F2E715F00205D8
:103E200026D0224601275BF8040B0C990B9E4B46CB
:103E3000C0B2541CB047002D00F0A4800D9BBB42C3
:103E400040F2A080651C22464B460B9C0C9920201A
:103E5000A04701372C46F1E74B460C990B9F2020D9
:103E6000B8470D9B3219B71C0136B342F4D8DAE7D4
:103E70002E46F6E74B460C990B9D2020A84743465B
:103E80000D99994204EB030203F10108F2D8B9E657
:103E90004346E41AF4E71E464B46DDE90B51A847BA
:103EA000E21917F8010B28B1109B002BF4D0731EF8
:103EB000002EF0D10E9B1446002B63D0A8EB020815
:103EC00007E0651C22464B460B9C0C992020A0471E
:103ED0002C460D9A08EB04039342F2D352E00823D8
:103EE000CDE9036310220023CDE9013245F021051D
:103EF00005955BF8043B009322464B46DDE90B0138
:103F0000FFF752FC04463DE0B8F11F0F3FF62FAF1C
:103F10006E077FF550AF1EAA42442B2123E700BF56
:103F20000000E03F69284FF00A0203D064281346DE
:103F30007FF42AAEAF057FF567AE0BF1070B2BF0D0
:103F4000070B0D9BDBF804105F4657F8080B049233
:103F5000CDE9066300230593CB0F029300280B469F
:103F600073F100010895024602DA424263EB430313
:103F7000CDE90023DDE90B014B462246FFF756FC55
:103F80000446BB469AF8000000287FF4B0AC4C45CC
:103F90002CBF09F1FF3222464B460C990B9D0020A5
:103FA000A84720461FB0BDE8F08F00BF0FB41FB573
:103FB00006AA02A952F8043B0392009204484FF06B
:103FC000FF32FFF785FC05B05DF804EB04B07047E5
:103FD000C53800000CB41FB506AA52F8043B039282
:103FE00000920A4601460448FFF772FC05B05DF8EE
:103FF00004EB02B0704700BF5536000082B08DED73
:10400000010A0199C1F3C753A3F17F02162A16DCF6
:10401000002A0DDB10481041084212D04FF48003F3
:1040200013410B4423EA000300EE103A02B070473C
:10403000013201F00043F7D143F07E53F4E7802AC8
:1040400003D09DED010A02B07047DDED017A37EE35
:10405000A70A02B0704700BFFFFF7F00024B014676
:10406000186800F059B800BF18000020024B014644
:10407000186800F003B800BF1800002038B50546E6
:10408000002945D051F8043C0C1F002BB8BFE418A0
:1040900000F0ACF81F4A1368104633B9636014602F
:1040A0002846BDE8384000F0A7B8A3420CD92168E3
:1040B0006218934204BF1A685B68636004BF5218B9
:1040C00022600460ECE713465A680AB1A242FAD9AA
:1040D00019685818A0420BD1206801445818824230
:1040E0001960DDD1106852685A6001441960D7E741
:1040F00002D90C232B60D3E7206821188A4204BF21
:1041000011685268626004BF091821605C60C7E7EB
:1041100038BD00BFF8000020F8B5CD1C25F0030520
:1041200008350C2D38BF0C25002D064601DBA942B1
:1041300003D90C2333600020F8BD00F057F8214963
:104140000A6814469CB9204F3B6823B92146304683
:1041500000F03CF838602946304600F037F8431C40
:1041600023D10C233360304600F046F8E3E72368A0
:104170005B1B17D40B2B03D923601C44256004E080
:104180006368A2420CBF0B605360304600F034F805
:1041900004F10B00231D20F00700C21ACCD01B1A1B
:1041A000A350C9E722466468CCE7C41C24F003048A
:1041B000A042E3D0211A304600F008F80130DDD1EA
:1041C000CFE700BFF8000020FC00002038B5064C07
:1041D000002305460846236000F016F8431C02D170
:1041E000236803B12B6038BD7C010020014800F03A
:1041F00009B800BF84010020014800F004B800BFE6
:104200008401002070477047044A05491368002B59
:1042100008BF0B4618441060184670470001002084
:104220008C010020686172646661756C745F7472E1
:104230006163655F737461636B006D656D6D616E65
:104240006167655F74726163655F737461636B005E
:104250006275736661756C745F74726163655F73B8
:104260007461636B0075736167656661756C745F1B
:1042700074726163655F737461636B005B25735D6A
:10428000202D20427573206661756C742120537453
:1042900061636B2074726163653A0D0A005B25737C
:1042A0005D202D2042465352205B30782530325815
:1042B0005D0D0A005B25735D202D20424641522092
:1042C0005B3078253038585D0D0A005B25735D2022
:1042D0002D2048617264206661756C7421205374CE
:1042E00061636B2074726163653A0D0A005B25732C
:1042F0005D202D205230205B3078253038585D0D00
:104300000A005B25735D202D205231205B3078251B
:104310003038585D0D0A005B25735D202D20523228
:10432000205B3078253038585D0D0A005B25735DC1
:10433000202D205233205B3078253038585D0D0A0F
:10434000005B25735D202D20523132205B307825B3
:104350003038585D0D0A005B25735D202D204C52CE
:10436000205B5231345D205B3078253038585D2039
:1043700063616C6C2072657475726E0D0A005B254A
:10438000735D202D205043205B5231355D205B3022
:1043900078253038585D2070726F6772616D2063C8
:1043A0006F756E7465720D0A005B25735D202D209C
:1043B000505352205B3078253038585D2070726F32
:1043C0006772616D207374617475732072656769BB
:1043D000737465720D0A005B25735D202D202D2DF1
:1043E0002D2D2D2D2D2D2D2D2D2D2D2D2D2D2D2DFD
:1043F0002D2D2D2D2D2D2D2D2D2D2D2D0D0A005B2F
:1044000025735D202D2048465352205B307825309F
:1044100038585D0D0A005B25735D202D20494353FC
:1044200052205B3078253038585D0D0A005B2573CB
:104430005D202D204D5350205B3078253038585D5D
:104440000D0A005B25735D202D204D656D6F72791F
:10445000206D616E6167656D656E74206661756C57
:10446000742120537461636B2074726163653A0D2B
:104470000A005B25735D202D204D4D465352205B75
:104480003078253032585D0D0A005B25735D202D94
:10449000204D4D464152205B3078253038585D0D17
:1044A0000A005B25735D202D2055736167652066CA
:1044B00061756C742120537461636B207472616345
:1044C000653A0D0A005B25735D202D205546535239
:1044D000205B3078253034585D0D0A0026500000EE
:1044E000305000003A500000445000004E50000090
:1044F000585000009246000092460000924600008C
:10450000625000006C5000007650000080500000A7
:104510008B50000096500000A1500000AC500000ED
:10452000B7500000924600009246000092460000FC
:10453000C2500000CD500000D8500000E3500000F1
:10454000EE500000F9500000045100000F5100002F
:104550001A510000255100009246000092460000CA
:10456000305100003B510000465100005151000005
:104570005C51000067510000725100007D51000045
:1045800088510000935100009246000092460000BE
:104590009E510000A9510000B45100009246000055
:1045A00092460000924600009246000092460000AB
:1045B0009246000092460000BF510000C651000024
:1045C000CE510000D6510000DE510000E65100003F
:1045D000EE51000092460000924600009246000014
:1045E000F651000092460000005200009246000082
:1045F0000A52000092460000155200009246000048
:10460000924600009246000092460000924600004A
:10461000924600009246000092460000924600003A
:104620009246000092460000924600002052000090
:1046300092460000924600002B5200009246000075
:10464000924600003652000092460000924600005A
:1046500092460000924600009246000092460000FA
:1046600092460000924600009246000092460000EA
:10467000924600009246000092460000415200001F
:104680004952000051520000696E6974006D616901
:104690006E003F00257325687546256875256325DE
:1046A0006325686875004C4F57004F4B005B2573BE
:1046B0005D202D204465766963653A2025730D0AD7
:1046C000005B25735D202D2044657669636520526B
:1046D00065766973696F6E3A203078253034580DED
:1046E0000A005B25735D202D2043616C6962726155
:1046F00074696F6E2074656D706572617475726532
:104700003A202568687520430D0A005B25735D20FB
:104710002D20466C6173682053697A653A202568BC
:1047200075206B420D0A005B25735D202D205241E0
:104730004D2053697A653A20256875206B420D0A31
:10474000005B25735D202D20467265652052414D2A
:104750003A20256C7520420D0A005B25735D202DE3
:1047600020556E697175652049443A2025303858C6
:104770002D253038580D0A005B25735D202D204310
:104780004D55202D204846584F20436C6F636B3A9F
:1047900020252E3166204D487A210D0A005B2573B5
:1047A0005D202D20434D55202D20484652434F205B
:1047B000436C6F636B3A20252E3166204D487A2179
:1047C0000D0A005B25735D202D20434D55202D20C3
:1047D0005553484652434F20436C6F636B3A202534
:1047E0002E3166204D487A210D0A005B25735D202D
:1047F0002D20434D55202D20415558484652434FBA
:1048000020436C6F636B3A20252E3166204D487A29
:10481000210D0A005B25735D202D20434D55202D71
:10482000204C46584F20436C6F636B3A20252E3343
:1048300066206B487A210D0A005B25735D202D20D0
:10484000434D55202D204C4652434F20436C6F63FF
:104850006B3A20252E3366206B487A210D0A005BC7
:1048600025735D202D20434D55202D20554C46525B
:10487000434F20436C6F636B3A20252E3366206BC9
:10488000487A210D0A005B25735D202D20434D558C
:10489000202D20484653524320436C6F636B3A20CF
:1048A000252E3166204D487A210D0A005B25735D67
:1048B000202D20434D55202D20484620436C6F630A
:1048C0006B3A20252E3166204D487A210D0A005B77
:1048D00025735D202D20434D55202D2048464255FF
:1048E0005320436C6F636B3A20252E3166204D4870
:1048F0007A210D0A005B25735D202D20434D552044
:104900002D204846434F524520436C6F636B3A203D
:10491000252E3166204D487A210D0A005B25735DF6
:10492000202D20434D55202D2048464558502043EA
:104930006C6F636B3A20252E3166204D487A210D2D
:104940000A005B25735D202D20434D55202D204806
:104950004650455220436C6F636B3A20252E3166DA
:10496000204D487A210D0A005B25735D202D2043E0
:104970004D55202D2048465045524220436C6F63D0
:104980006B3A20252E3166204D487A210D0A005BB6
:1049900025735D202D20434D55202D204846504540
:1049A000524320436C6F636B3A20252E3166204DB5
:1049B000487A210D0A005B25735D202D20434D555B
:1049C000202D2048464C4520436C6F636B3A2025D0
:1049D0002E3166204D487A210D0A005B25735D203B
:1049E0002D20434D55202D205153504920436C6FAD
:1049F000636B3A20252E3166204D487A210D0A003E
:104A00005B25735D202D20434D55202D20534449B7
:104A10004F20436C6F636B3A20252E3166204D4842
:104A20007A210D0A005B25735D202D20434D552012
:104A30002D2055534220436C6F636B3A20252E3155
:104A400066204D487A210D0A005B25735D202D20DC
:104A5000434D55202D204144433020436C6F636B00
:104A60003A20252E3166204D487A210D0A005B251B
:104A7000735D202D20434D55202D2041444331208E
:104A8000436C6F636B3A20252E3166204D487A21A6
:104A90000D0A005B25735D202D20434D55202D20F0
:104AA00044424720436C6F636B3A20252E316620C9
:104AB0004D487A210D0A005B25735D202D20434D62
:104AC00055202D2041555820436C6F636B3A2025AB
:104AD0002E3166204D487A210D0A005B25735D203A
:104AE0002D20434D55202D204C464120436C6F63B3
:104AF0006B3A20252E3366206B487A210D0A005B25
:104B000025735D202D20434D55202D204C455345C8
:104B10004E534520436C6F636B3A20252E3366203D
:104B20006B487A210D0A005B25735D202D20434DD3
:104B300055202D2052544320436C6F636B3A20253F
:104B40002E3366206B487A210D0A005B25735D20A9
:104B50002D20434D55202D204C434420436C6F6342
:104B60006B3A20252E3366206B487A210D0A005BB4
:104B700025735D202D20434D55202D204C45544953
:104B80004D45523020436C6F636B3A20252E3366BF
:104B9000206B487A210D0A005B25735D202D204390
:104BA0004D55202D204C4554494D45523120436CE4
:104BB0006F636B3A20252E3366206B487A210D0AED
:104BC000005B25735D202D20434D55202D204C4644
:104BD0004220436C6F636B3A20252E3366206B486E
:104BE0007A210D0A005B25735D202D20434D552051
:104BF0002D204C45554152543020436C6F636B3A25
:104C000020252E3366206B487A210D0A005B257320
:104C10005D202D20434D55202D204C4555415254AB
:104C20003120436C6F636B3A20252E3366206B482E
:104C30007A210D0A005B25735D202D20434D552000
:104C40002D205359535449434B20436C6F636B3AA7
:104C500020252E3366206B487A210D0A005B2573D0
:104C60005D202D20434D55202D204353454E20439C
:104C70006C6F636B3A20252E3366206B487A210DCA
:104C80000A005B25735D202D20434D55202D204CBF
:104C9000464320436C6F636B3A20252E3366206BAE
:104CA000487A210D0A005B25735D202D20434D5568
:104CB000202D204C464520436C6F636B3A20252EF7
:104CC0003366206B487A210D0A005B25735D202D29
:104CD00020434D55202D205254434320436C6F6395
:104CE0006B3A20252E3366206B487A210D0A005B33
:104CF00025735D202D20454D55202D2041564444DF
:104D00002046616C6C205468726573686F6C643AFD
:104D100020252E3266206D56210D0A005B25735D1D
:104D2000202D20454D55202D2041564444205269C8
:104D30007365205468726573686F6C643A20252E21
:104D40003266206D56210D0A005B25735D202D20F3
:104D5000454D55202D204156444420566F6C7461BA
:104D600067653A20252E3266206D560D0A005B25B8
:104D7000735D202D20454D55202D20415644442063
:104D80005374617475733A2025730D0A005B2573A3
:104D90005D202D20454D55202D204456444420466D
:104DA000616C6C205468726573686F6C643A20257E
:104DB0002E3266206D56210D0A005B25735D202D75
:104DC00020454D55202D204456444420526973659A
:104DD000205468726573686F6C643A20252E3266C1
:104DE000206D56210D0A005B25735D202D20454D59
:104DF00055202D204456444420566F6C74616765DD
:104E00003A20252E3266206D560D0A005B25735D13
:104E1000202D20454D55202D2044564444205374C8
:104E2000617475733A2025730D0A005B25735D204C
:104E30002D20454D55202D20494F56444420466194
:104E40006C6C205468726573686F6C643A20252E10
:104E50003266206D56210D0A005B25735D202D20E2
:104E6000454D55202D20494F5644442052697365C5
:104E7000205468726573686F6C643A20252E326620
:104E8000206D56210D0A005B25735D202D20454DB8
:104E900055202D20494F56444420566F6C7461674D
:104EA000653A20252E3266206D560D0A005B25736B
:104EB0005D202D20454D55202D20494F564444203E
:104EC0005374617475733A2025730D0A005B257362
:104ED0005D202D20454D55202D20436F72652056B5
:104EE0006F6C746167653A20252E3266206D560D11
:104EF0000A005B25735D202D205363616E6E696E21
:104F000067204932432062757320302E2E2E0D0A01
:104F1000005B25735D202D20202041646472657341
:104F200073203078253032582041434B6564210D81
:104F30000A005B25735D202D205363616E6E696EE0
:104F400067204932432062757320322E2E2E0D0ABF
:104F5000005B25735D202D20496E697469616C20AA
:104F600063616C6962726174696F6E2064756D70E3
:104F70003A0D0A005B25735D202D20202030782516
:104F8000303858202D3E203078253038580D0A0012
:104F90005B25735D202D20466C6173682050617223
:104FA000742049443A20253036580D0A005B257399
:104FB0005D202D20466C6173682049443A202530DD
:104FC0003258253032582530325825303258253065
:104FD00032582530325825303258253032580D0A93
:104FE000005B25735D202D20515350492052443AD7
:104FF00020253032580D0A005B25735D202D20429C
:105000006F6F742052443A20253032580D0A005BED
:1050100025735D202D20446174612052443A20257F
:105020003032580D0A0045465233324D4731500058
:1050300045465233324D4731420045465233324D98
:1050400047315600454652333242473150004546BB
:1050500052333242473142004546523332424731A1
:10506000560045465233324647315000454652338A
:1050700032464731420045465233324647315600A8
:1050800045465233324D4731325000454652333255
:105090004D473132420045465233324D4731325648
:1050A0000045465233324247313250004546523372
:1050B0003242473132420045465233324247313262
:1050C000560045465233324647313250004546522B
:1050D0003332464731324200454652333246473139
:1050E00032560045465233324D4731335000454623
:1050F0005233324D473133420045465233324D47E9
:105100003133560045465233324247313350004521
:1051100046523332424731334200454652333242DF
:10512000473133560045465233325A4731335000E7
:1051300045465233324647313350004546523332AA
:1051400046473133420045465233324647313356A3
:105150000045465233324D473134500045465233B4
:10516000324D473134420045465233324D47313497
:10517000560045465233324247313450004546527C
:10518000333242473134420045465233324247318E
:1051900034560045465233325A4731345000454662
:1051A0005233324647313450004546523332464737
:1051B0003134420045465233324647313456004579
:1051C000464D3332470045464D333247470045464A
:1051D0004D333254470045464D33324C4700454627
:1051E0004D333257470045464D33325A4700454606
:1051F0004D333248470045464D3332504731420027
:1052000045464D33324A4731420045464D333250D0
:10521000473132420045464D33324A47313242002F
:1052200045464D333247473131420045464D3332D2
:1052300054473131420045464D33324747313242BF
:1052400000455A5233324C4700455A523332574781
:1052500000455A5233324847000000000000000069
:10526000000000000000F03F0000000000002440AB
:1052700000000000000059400000000000408F4086
:10528000000000000088C34000000000006AF840F1
:105290000000000080842E4100000000D012634115
:1052A0000000000084D797410000000065CDCD418B
:0852B0000CB8FF7F01000000B3
:1052B8000080E00FC0EA2101C0EA2101008000005F
:1052C800E8030000006CDC021C0000200000000065
:1052D80000000000000000000000000000000000C6
:1052E80000000000000000000000000000000000B6
:1052F80000000000000000000000000000000000A6
:105308000000000000000000000000000000000095
:105318000000000000000000000000000000000085
:0C53280000000000000000000000000079
:040000030000335175
:00000001FF
